:030000000208A053
:0C08A000787FE4F6D8FD7581070208841B
:10088400C2B1C2B030B0097FF47E0112080080F416
:0C08940030B1F17FF47E0112083280F4D4
:0E086400AF03AE0212087275A003AF03AE021E
:10087200E4FDFCC3ED9FEC9E50070DBD00010C8012
:01088200F283
:010883002252
:10080000AB07AA0675A00912086E75A0011208644C
:1008100075A00212086E75A00612086E75A004126B
:10082000086E75A00C12086E75A008AF03AE020228
:0208300008724C
:10083200AB07AA0675A00912086E75A00812086E09
:1008420075A00C12086E75A00412086E75A006122F
:10085200086E75A00212086475A001AF03AE020211
:0208620008721A
:00000001FF
